{
  "_format": "hh-sol-artifact-1",
  "contractName": "ImageUploader",
  "sourceName": "contracts/ImageUploader.sol",
  "abi": [
    {
      "inputs": [
        {
          "internalType": "uint256",
          "name": "_uploadFee",
          "type": "uint256"
        }
      ],
      "stateMutability": "nonpayable",
      "type": "constructor"
    },
    {
      "anonymous": false,
      "inputs": [
        {
          "indexed": false,
          "internalType": "uint256",
          "name": "newFee",
          "type": "uint256"
        }
      ],
      "name": "FeeUpdated",
      "type": "event"
    },
    {
      "anonymous": false,
      "inputs": [
        {
          "indexed": false,
          "internalType": "uint256",
          "name": "amount",
          "type": "uint256"
        }
      ],
      "name": "FundsWithdrawn",
      "type": "event"
    },
    {
      "anonymous": false,
      "inputs": [
        {
          "indexed": true,
          "internalType": "address",
          "name": "uploader",
          "type": "address"
        },
        {
          "indexed": true,
          "internalType": "uint256",
          "name": "imageId",
          "type": "uint256"
        },
        {
          "indexed": false,
          "internalType": "string",
          "name": "imageURI",
          "type": "string"
        }
      ],
      "name": "ImageUploaded",
      "type": "event"
    },
    {
      "inputs": [],
      "name": "contractBalance",
      "outputs": [
        {
          "internalType": "uint256",
          "name": "",
          "type": "uint256"
        }
      ],
      "stateMutability": "view",
      "type": "function"
    },
    {
      "inputs": [
        {
          "internalType": "uint256",
          "name": "imageId",
          "type": "uint256"
        }
      ],
      "name": "getImage",
      "outputs": [
        {
          "components": [
            {
              "internalType": "address",
              "name": "uploader",
              "type": "address"
            },
            {
              "internalType": "string",
              "name": "imageURI",
              "type": "string"
            },
            {
              "internalType": "uint256",
              "name": "timestamp",
              "type": "uint256"
            }
          ],
          "internalType": "struct ImageUploader.Image",
          "name": "",
          "type": "tuple"
        }
      ],
      "stateMutability": "view",
      "type": "function"
    },
    {
      "inputs": [
        {
          "internalType": "uint256",
          "name": "",
          "type": "uint256"
        }
      ],
      "name": "images",
      "outputs": [
        {
          "internalType": "address",
          "name": "uploader",
          "type": "address"
        },
        {
          "internalType": "string",
          "name": "imageURI",
          "type": "string"
        },
        {
          "internalType": "uint256",
          "name": "timestamp",
          "type": "uint256"
        }
      ],
      "stateMutability": "view",
      "type": "function"
    },
    {
      "inputs": [],
      "name": "owner",
      "outputs": [
        {
          "internalType": "address",
          "name": "",
          "type": "address"
        }
      ],
      "stateMutability": "view",
      "type": "function"
    },
    {
      "inputs": [],
      "name": "totalImages",
      "outputs": [
        {
          "internalType": "uint256",
          "name": "",
          "type": "uint256"
        }
      ],
      "stateMutability": "view",
      "type": "function"
    },
    {
      "inputs": [
        {
          "internalType": "uint256",
          "name": "_newFee",
          "type": "uint256"
        }
      ],
      "name": "updateFee",
      "outputs": [],
      "stateMutability": "nonpayable",
      "type": "function"
    },
    {
      "inputs": [],
      "name": "uploadFee",
      "outputs": [
        {
          "internalType": "uint256",
          "name": "",
          "type": "uint256"
        }
      ],
      "stateMutability": "view",
      "type": "function"
    },
    {
      "inputs": [
        {
          "internalType": "string",
          "name": "_imageURI",
          "type": "string"
        }
      ],
      "name": "uploadImage",
      "outputs": [],
      "stateMutability": "payable",
      "type": "function"
    },
    {
      "inputs": [],
      "name": "withdrawFunds",
      "outputs": [],
      "stateMutability": "nonpayable",
      "type": "function"
    }
  ],
  "bytecode": "0x608060405234801561001057600080fd5b506040516200122738038062001227833981810160405281019061003491906100bc565b336000806101000a81548173ffffffffffffffffffffffffffffffffffffffff021916908373ffffffffffffffffffffffffffffffffffffffff16021790555080600181905550506100e9565b600080fd5b6000819050919050565b61009981610086565b81146100a457600080fd5b50565b6000815190506100b681610090565b92915050565b6000602082840312156100d2576100d1610081565b5b60006100e0848285016100a7565b91505092915050565b61112e80620000f96000396000f3fe6080604052600436106100865760003560e01c80638da5cb5b116100595780638da5cb5b146101495780639012c4a814610174578063e740c8a01461019d578063fade8834146101b9578063ffd02891146101e457610086565b806324600fc31461008b5780632607aafa146100a257806384856482146100df5780638b7afe2e1461011e575b600080fd5b34801561009757600080fd5b506100a061020f565b005b3480156100ae57600080fd5b506100c960048036038101906100c4919061089d565b610386565b6040516100d691906109fa565b60405180910390f35b3480156100eb57600080fd5b506101066004803603810190610101919061089d565b6104a5565b60405161011593929190610a84565b60405180910390f35b34801561012a57600080fd5b50610133610577565b6040516101409190610ac2565b60405180910390f35b34801561015557600080fd5b5061015e61057f565b60405161016b9190610add565b60405180910390f35b34801561018057600080fd5b5061019b6004803603810190610196919061089d565b6105a3565b005b6101b760048036038101906101b29190610b5d565b610672565b005b3480156101c557600080fd5b506101ce61081a565b6040516101db9190610ac2565b60405180910390f35b3480156101f057600080fd5b506101f9610820565b6040516102069190610ac2565b60405180910390f35b60008054906101000a900473ffffffffffffffffffffffffffffffffffffffff1673ffffffffffffffffffffffffffffffffffffffff163373ffffffffffffffffffffffffffffffffffffffff161461029d576040517f08c379a000000000000000000000000000000000000000000000000000000000815260040161029490610bf6565b60405180910390fd5b6000479050600081116102e5576040517f08c379a00000000000000000000000000000000000000000000000000000000081526004016102dc90610c62565b60405180910390fd5b60008054906101000a900473ffffffffffffffffffffffffffffffffffffffff1673ffffffffffffffffffffffffffffffffffffffff166108fc829081150290604051600060405180830381858888f1935050505015801561034b573d6000803e3d6000fd5b507f4a37b25aab49761ecf63117fe82b98d750917451133cf797507bc9fb5b96044a8160405161037b9190610ac2565b60405180910390a150565b61038e610826565b600360008381526020019081526020016000206040518060600160405290816000820160009054906101000a900473ffffffffffffffffffffffffffffffffffffffff1673ffffffffffffffffffffffffffffffffffffffff1673ffffffffffffffffffffffffffffffffffffffff16815260200160018201805461041290610cb1565b80601f016020809104026020016040519081016040528092919081815260200182805461043e90610cb1565b801561048b5780601f106104605761010080835404028352916020019161048b565b820191906000526020600020905b81548152906001019060200180831161046e57829003601f168201915b505050505081526020016002820154815250509050919050565b60036020528060005260406000206000915090508060000160009054906101000a900473ffffffffffffffffffffffffffffffffffffffff16908060010180546104ee90610cb1565b80601f016020809104026020016040519081016040528092919081815260200182805461051a90610cb1565b80156105675780601f1061053c57610100808354040283529160200191610567565b820191906000526020600020905b81548152906001019060200180831161054a57829003601f168201915b5050505050908060020154905083565b600047905090565b60008054906101000a900473ffffffffffffffffffffffffffffffffffffffff1681565b60008054906101000a900473ffffffffffffffffffffffffffffffffffffffff1673ffffffffffffffffffffffffffffffffffffffff163373ffffffffffffffffffffffffffffffffffffffff1614610631576040517f08c379a000000000000000000000000000000000000000000000000000000000815260040161062890610bf6565b60405180910390fd5b806001819055507f8c4d35e54a3f2ef1134138fd8ea3daee6a3c89e10d2665996babdf70261e2c76816040516106679190610ac2565b60405180910390a150565b6001543410156106b7576040517f08c379a00000000000000000000000000000000000000000000000000000000081526004016106ae90610d54565b60405180910390fd5b60405180606001604052803373ffffffffffffffffffffffffffffffffffffffff16815260200183838080601f016020809104026020016040519081016040528093929190818152602001838380828437600081840152601f19601f8201169050808301925050505050505081526020014281525060036000600254815260200190815260200160002060008201518160000160006101000a81548173ffffffffffffffffffffffffffffffffffffffff021916908373ffffffffffffffffffffffffffffffffffffffff160217905550602082015181600101908161079d9190610f4f565b50604082015181600201559050506002543373ffffffffffffffffffffffffffffffffffffffff167f560932f65615268a00d840bc3c0074411bcc6b6ebe6d0ac5758ba22d6635abb284846040516107f692919061105d565b60405180910390a360026000815480929190610811906110b0565b91905055505050565b60025481565b60015481565b6040518060600160405280600073ffffffffffffffffffffffffffffffffffffffff16815260200160608152602001600081525090565b600080fd5b600080fd5b6000819050919050565b61087a81610867565b811461088557600080fd5b50565b60008135905061089781610871565b92915050565b6000602082840312156108b3576108b261085d565b5b60006108c184828501610888565b91505092915050565b600073ffffffffffffffffffffffffffffffffffffffff82169050919050565b60006108f5826108ca565b9050919050565b610905816108ea565b82525050565b600081519050919050565b600082825260208201905092915050565b60005b8381101561094557808201518184015260208101905061092a565b60008484015250505050565b6000601f19601f8301169050919050565b600061096d8261090b565b6109778185610916565b9350610987818560208601610927565b61099081610951565b840191505092915050565b6109a481610867565b82525050565b60006060830160008301516109c260008601826108fc565b50602083015184820360208601526109da8282610962565b91505060408301516109ef604086018261099b565b508091505092915050565b60006020820190508181036000830152610a1481846109aa565b905092915050565b610a25816108ea565b82525050565b600082825260208201905092915050565b6000610a478261090b565b610a518185610a2b565b9350610a61818560208601610927565b610a6a81610951565b840191505092915050565b610a7e81610867565b82525050565b6000606082019050610a996000830186610a1c565b8181036020830152610aab8185610a3c565b9050610aba6040830184610a75565b949350505050565b6000602082019050610ad76000830184610a75565b92915050565b6000602082019050610af26000830184610a1c565b92915050565b600080fd5b600080fd5b600080fd5b60008083601f840112610b1d57610b1c610af8565b5b8235905067ffffffffffffffff811115610b3a57610b39610afd565b5b602083019150836001820283011115610b5657610b55610b02565b5b9250929050565b60008060208385031215610b7457610b7361085d565b5b600083013567ffffffffffffffff811115610b9257610b91610862565b5b610b9e85828601610b07565b92509250509250929050565b7f536f6c6f20656c206f776e6572207075656465206861636572206573746f0000600082015250565b6000610be0601e83610a2b565b9150610beb82610baa565b602082019050919050565b60006020820190508181036000830152610c0f81610bd3565b9050919050565b7f4e6f2068617920666f6e646f7320706172612072657469726172000000000000600082015250565b6000610c4c601a83610a2b565b9150610c5782610c16565b602082019050919050565b60006020820190508181036000830152610c7b81610c3f565b9050919050565b7f4e487b7100000000000000000000000000000000000000000000000000000000600052602260045260246000fd5b60006002820490506001821680610cc957607f821691505b602082108103610cdc57610cdb610c82565b5b50919050565b7f5061676f20696e737566696369656e7465207061726120737562697220696d6160008201527f67656e0000000000000000000000000000000000000000000000000000000000602082015250565b6000610d3e602383610a2b565b9150610d4982610ce2565b604082019050919050565b60006020820190508181036000830152610d6d81610d31565b9050919050565b7f4e487b7100000000000000000000000000000000000000000000000000000000600052604160045260246000fd5b60008190508160005260206000209050919050565b60006020601f8301049050919050565b600082821b905092915050565b600060088302610e057fffffffffffffffffffffffffffffffffffffffffffffffffffffffffffffffff82610dc8565b610e0f8683610dc8565b95508019841693508086168417925050509392505050565b6000819050919050565b6000610e4c610e47610e4284610867565b610e27565b610867565b9050919050565b6000819050919050565b610e6683610e31565b610e7a610e7282610e53565b848454610dd5565b825550505050565b600090565b610e8f610e82565b610e9a818484610e5d565b505050565b5b81811015610ebe57610eb3600082610e87565b600181019050610ea0565b5050565b601f821115610f0357610ed481610da3565b610edd84610db8565b81016020851015610eec578190505b610f00610ef885610db8565b830182610e9f565b50505b505050565b600082821c905092915050565b6000610f2660001984600802610f08565b1980831691505092915050565b6000610f3f8383610f15565b9150826002028217905092915050565b610f588261090b565b67ffffffffffffffff811115610f7157610f70610d74565b5b610f7b8254610cb1565b610f86828285610ec2565b600060209050601f831160018114610fb95760008415610fa7578287015190505b610fb18582610f33565b865550611019565b601f198416610fc786610da3565b60005b82811015610fef57848901518255600182019150602085019450602081019050610fca565b8683101561100c5784890151611008601f891682610f15565b8355505b6001600288020188555050505b505050505050565b82818337600083830152505050565b600061103c8385610a2b565b9350611049838584611021565b61105283610951565b840190509392505050565b60006020820190508181036000830152611078818486611030565b90509392505050565b7f4e487b7100000000000000000000000000000000000000000000000000000000600052601160045260246000fd5b60006110bb82610867565b91507fffffffffffffffffffffffffffffffffffffffffffffffffffffffffffffffff82036110ed576110ec611081565b5b60018201905091905056fea26469706673582212203b4fbba428c94e150988a40a21b58f8b843f9545df5c98cdb7e7005e63390f7b64736f6c63430008180033",
  "linkReferences": {},
  "deployedLinkReferences": {}
}