{
  "_format": "hh-sol-artifact-1",
  "contractName": "NativeLoanWithPenalty",
  "sourceName": "contracts/NativeLoanWithPenalty.sol",
  "abi": [
    {
      "inputs": [
        {
          "internalType": "uint256",
          "name": "_interestAmount",
          "type": "uint256"
        },
        {
          "internalType": "uint256",
          "name": "_durationSeconds",
          "type": "uint256"
        }
      ],
      "stateMutability": "payable",
      "type": "constructor"
    },
    {
      "anonymous": false,
      "inputs": [
        {
          "indexed": true,
          "internalType": "address",
          "name": "borrower",
          "type": "address"
        }
      ],
      "name": "FullyRepaid",
      "type": "event"
    },
    {
      "anonymous": false,
      "inputs": [
        {
          "indexed": true,
          "internalType": "address",
          "name": "lender",
          "type": "address"
        },
        {
          "indexed": false,
          "internalType": "uint256",
          "name": "amount",
          "type": "uint256"
        }
      ],
      "name": "Funded",
      "type": "event"
    },
    {
      "anonymous": false,
      "inputs": [
        {
          "indexed": true,
          "internalType": "address",
          "name": "borrower",
          "type": "address"
        }
      ],
      "name": "LoanTaken",
      "type": "event"
    },
    {
      "anonymous": false,
      "inputs": [
        {
          "indexed": true,
          "internalType": "address",
          "name": "borrower",
          "type": "address"
        },
        {
          "indexed": false,
          "internalType": "uint256",
          "name": "amount",
          "type": "uint256"
        }
      ],
      "name": "PartialRepayment",
      "type": "event"
    },
    {
      "anonymous": false,
      "inputs": [
        {
          "indexed": false,
          "internalType": "uint256",
          "name": "penalty",
          "type": "uint256"
        }
      ],
      "name": "PenaltyApplied",
      "type": "event"
    },
    {
      "anonymous": false,
      "inputs": [
        {
          "indexed": true,
          "internalType": "address",
          "name": "lender",
          "type": "address"
        },
        {
          "indexed": false,
          "internalType": "uint256",
          "name": "amount",
          "type": "uint256"
        }
      ],
      "name": "Withdrawn",
      "type": "event"
    },
    {
      "inputs": [],
      "name": "amountRepaid",
      "outputs": [
        {
          "internalType": "uint256",
          "name": "",
          "type": "uint256"
        }
      ],
      "stateMutability": "view",
      "type": "function"
    },
    {
      "inputs": [],
      "name": "applyPenalty",
      "outputs": [],
      "stateMutability": "nonpayable",
      "type": "function"
    },
    {
      "inputs": [],
      "name": "borrower",
      "outputs": [
        {
          "internalType": "address",
          "name": "",
          "type": "address"
        }
      ],
      "stateMutability": "view",
      "type": "function"
    },
    {
      "inputs": [],
      "name": "dueDate",
      "outputs": [
        {
          "internalType": "uint256",
          "name": "",
          "type": "uint256"
        }
      ],
      "stateMutability": "view",
      "type": "function"
    },
    {
      "inputs": [],
      "name": "getOutstanding",
      "outputs": [
        {
          "internalType": "uint256",
          "name": "",
          "type": "uint256"
        }
      ],
      "stateMutability": "view",
      "type": "function"
    },
    {
      "inputs": [],
      "name": "getTimeRemaining",
      "outputs": [
        {
          "internalType": "uint256",
          "name": "",
          "type": "uint256"
        }
      ],
      "stateMutability": "view",
      "type": "function"
    },
    {
      "inputs": [],
      "name": "interestAmount",
      "outputs": [
        {
          "internalType": "uint256",
          "name": "",
          "type": "uint256"
        }
      ],
      "stateMutability": "view",
      "type": "function"
    },
    {
      "inputs": [],
      "name": "lender",
      "outputs": [
        {
          "internalType": "address",
          "name": "",
          "type": "address"
        }
      ],
      "stateMutability": "view",
      "type": "function"
    },
    {
      "inputs": [],
      "name": "loanAmount",
      "outputs": [
        {
          "internalType": "uint256",
          "name": "",
          "type": "uint256"
        }
      ],
      "stateMutability": "view",
      "type": "function"
    },
    {
      "inputs": [],
      "name": "loanTaken",
      "outputs": [
        {
          "internalType": "bool",
          "name": "",
          "type": "bool"
        }
      ],
      "stateMutability": "view",
      "type": "function"
    },
    {
      "inputs": [],
      "name": "penaltyApplied",
      "outputs": [
        {
          "internalType": "bool",
          "name": "",
          "type": "bool"
        }
      ],
      "stateMutability": "view",
      "type": "function"
    },
    {
      "inputs": [],
      "name": "penaltyPercent",
      "outputs": [
        {
          "internalType": "uint256",
          "name": "",
          "type": "uint256"
        }
      ],
      "stateMutability": "view",
      "type": "function"
    },
    {
      "inputs": [],
      "name": "repay",
      "outputs": [],
      "stateMutability": "payable",
      "type": "function"
    },
    {
      "inputs": [],
      "name": "state",
      "outputs": [
        {
          "internalType": "enum NativeLoanWithPenalty.LoanState",
          "name": "",
          "type": "uint8"
        }
      ],
      "stateMutability": "view",
      "type": "function"
    },
    {
      "inputs": [],
      "name": "takeLoan",
      "outputs": [],
      "stateMutability": "nonpayable",
      "type": "function"
    },
    {
      "inputs": [],
      "name": "totalDue",
      "outputs": [
        {
          "internalType": "uint256",
          "name": "",
          "type": "uint256"
        }
      ],
      "stateMutability": "view",
      "type": "function"
    },
    {
      "inputs": [],
      "name": "withdraw",
      "outputs": [],
      "stateMutability": "nonpayable",
      "type": "function"
    },
    {
      "stateMutability": "payable",
      "type": "receive"
    }
  ],
  "bytecode": "0x6080604052600a60075560405162001d7b38038062001d7b83398181016040528101906200002e919062000262565b6000341162000074576040517f08c379a00000000000000000000000000000000000000000000000000000000081526004016200006b906200030a565b60405180910390fd5b60008211620000ba576040517f08c379a0000000000000000000000000000000000000000000000000000000008152600401620000b1906200037c565b60405180910390fd5b6000811162000100576040517f08c379a0000000000000000000000000000000000000000000000000000000008152600401620000f790620003ee565b60405180910390fd5b336000806101000a81548173ffffffffffffffffffffffffffffffffffffffff021916908373ffffffffffffffffffffffffffffffffffffffff16021790555034600281905550816003819055506003546002546200016091906200043f565b60048190555080426200017491906200043f565b6006819055506000600860026101000a81548160ff02191690836003811115620001a357620001a26200047a565b5b021790555060008054906101000a900473ffffffffffffffffffffffffffffffffffffffff1673ffffffffffffffffffffffffffffffffffffffff167f5af8184bef8e4b45eb9f6ed7734d04da38ced226495548f46e0c8ff8d7d9a524600254604051620002129190620004ba565b60405180910390a25050620004d7565b600080fd5b6000819050919050565b6200023c8162000227565b81146200024857600080fd5b50565b6000815190506200025c8162000231565b92915050565b600080604083850312156200027c576200027b62000222565b5b60006200028c858286016200024b565b92505060206200029f858286016200024b565b9150509250929050565b600082825260208201905092915050565b7f456c206d6f6e746f206465626520736572206d61796f72206120300000000000600082015250565b6000620002f2601b83620002a9565b9150620002ff82620002ba565b602082019050919050565b600060208201905081810360008301526200032581620002e3565b9050919050565b7f456c20696e7465726573206465626520736572206d61796f7220612030000000600082015250565b600062000364601d83620002a9565b915062000371826200032c565b602082019050919050565b60006020820190508181036000830152620003978162000355565b9050919050565b7f4c61206475726163696f6e206465626520736572206d61796f72206120300000600082015250565b6000620003d6601e83620002a9565b9150620003e3826200039e565b602082019050919050565b600060208201905081810360008301526200040981620003c7565b9050919050565b7f4e487b7100000000000000000000000000000000000000000000000000000000600052601160045260246000fd5b60006200044c8262000227565b9150620004598362000227565b925082820190508082111562000474576200047362000410565b5b92915050565b7f4e487b7100000000000000000000000000000000000000000000000000000000600052602160045260246000fd5b620004b48162000227565b82525050565b6000602082019050620004d16000830184620004a9565b92915050565b61189480620004e76000396000f3fe6080604052600436106101025760003560e01c80637df1f1b911610095578063bcead63e11610064578063bcead63e146102b5578063c19d93fb146102e0578063dac6270d1461030b578063ee86afd814610336578063fff2df2a1461036157610109565b80637df1f1b91461021d57806393e88f3a1461024857806398e05a49146102735780639d585f7f1461028a57610109565b8063544e7045116100d1578063544e7045146101715780635e0b63f31461019c578063786716fe146101c75780637a4ee555146101f257610109565b8063161ba46a1461010e57806333cb2c16146101395780633ccfd60b14610150578063402d88831461016757610109565b3661010957005b600080fd5b34801561011a57600080fd5b5061012361038c565b6040516101309190610f35565b60405180910390f35b34801561014557600080fd5b5061014e610392565b005b34801561015c57600080fd5b506101656105e3565b005b61016f6108ab565b005b34801561017d57600080fd5b50610186610b14565b6040516101939190610f6b565b60405180910390f35b3480156101a857600080fd5b506101b1610b27565b6040516101be9190610f6b565b60405180910390f35b3480156101d357600080fd5b506101dc610b3a565b6040516101e99190610f35565b60405180910390f35b3480156101fe57600080fd5b50610207610b40565b6040516102149190610f35565b60405180910390f35b34801561022957600080fd5b50610232610b6c565b60405161023f9190610fc7565b60405180910390f35b34801561025457600080fd5b5061025d610b92565b60405161026a9190610f35565b60405180910390f35b34801561027f57600080fd5b50610288610b98565b005b34801561029657600080fd5b5061029f610eab565b6040516102ac9190610f35565b60405180910390f35b3480156102c157600080fd5b506102ca610eb1565b6040516102d79190610fc7565b60405180910390f35b3480156102ec57600080fd5b506102f5610ed5565b6040516103029190611059565b60405180910390f35b34801561031757600080fd5b50610320610ee8565b60405161032d9190610f35565b60405180910390f35b34801561034257600080fd5b5061034b610f10565b6040516103589190610f35565b60405180910390f35b34801561036d57600080fd5b50610376610f16565b6040516103839190610f35565b60405180910390f35b60075481565b60008054906101000a900473ffffffffffffffffffffffffffffffffffffffff1673ffffffffffffffffffffffffffffffffffffffff163373ffffffffffffffffffffffffffffffffffffffff1614610420576040517f08c379a0000000000000000000000000000000000000000000000000000000008152600401610417906110d1565b60405180910390fd5b6001600381111561043457610433610fe2565b5b600860029054906101000a900460ff16600381111561045657610455610fe2565b5b14610496576040517f08c379a000000000000000000000000000000000000000000000000000000000815260040161048d90611163565b60405180910390fd5b60065442116104da576040517f08c379a00000000000000000000000000000000000000000000000000000000081526004016104d1906111f5565b60405180910390fd5b600860019054906101000a900460ff161561052a576040517f08c379a000000000000000000000000000000000000000000000000000000000815260040161052190611261565b60405180910390fd5b6000606460075460025461053e91906112b0565b6105489190611321565b9050806004600082825461055c9190611352565b925050819055506001600860016101000a81548160ff0219169083151502179055506003600860026101000a81548160ff021916908360038111156105a4576105a3610fe2565b5b02179055507fa29bfd23bfff432a03ee41093c7bf77395aa619c770130eb7f7b0e1d51fa3200816040516105d89190610f35565b60405180910390a150565b60008054906101000a900473ffffffffffffffffffffffffffffffffffffffff1673ffffffffffffffffffffffffffffffffffffffff163373ffffffffffffffffffffffffffffffffffffffff1614610671576040517f08c379a0000000000000000000000000000000000000000000000000000000008152600401610668906110d1565b60405180910390fd5b6002600381111561068557610684610fe2565b5b600860029054906101000a900460ff1660038111156106a7576106a6610fe2565b5b14806106e557506003808111156106c1576106c0610fe2565b5b600860029054906101000a900460ff1660038111156106e3576106e2610fe2565b5b145b610724576040517f08c379a000000000000000000000000000000000000000000000000000000000815260040161071b906113d2565b60405180910390fd5b60004790506000811161076c576040517f08c379a00000000000000000000000000000000000000000000000000000000081526004016107639061143e565b60405180910390fd5b60008060009054906101000a900473ffffffffffffffffffffffffffffffffffffffff1673ffffffffffffffffffffffffffffffffffffffff16826040516107b39061148f565b60006040518083038185875af1925050503d80600081146107f0576040519150601f19603f3d011682016040523d82523d6000602084013e6107f5565b606091505b5050905080610839576040517f08c379a0000000000000000000000000000000000000000000000000000000008152600401610830906114f0565b60405180910390fd5b60008054906101000a900473ffffffffffffffffffffffffffffffffffffffff1673ffffffffffffffffffffffffffffffffffffffff167f7084f5476618d8e60b11ef0d7d3f06914655adb8793e28ff7f018d4c76d505d58360405161089f9190610f35565b60405180910390a25050565b600160009054906101000a900473ffffffffffffffffffffffffffffffffffffffff1673ffffffffffffffffffffffffffffffffffffffff163373ffffffffffffffffffffffffffffffffffffffff161461093b576040517f08c379a00000000000000000000000000000000000000000000000000000000081526004016109329061155c565b60405180910390fd5b6000341161097e576040517f08c379a0000000000000000000000000000000000000000000000000000000008152600401610975906115c8565b60405180910390fd5b6001600381111561099257610991610fe2565b5b600860029054906101000a900460ff1660038111156109b4576109b3610fe2565b5b14806109f257506003808111156109ce576109cd610fe2565b5b600860029054906101000a900460ff1660038111156109f0576109ef610fe2565b5b145b610a31576040517f08c379a0000000000000000000000000000000000000000000000000000000008152600401610a2890611634565b60405180910390fd5b3460056000828254610a439190611352565b925050819055503373ffffffffffffffffffffffffffffffffffffffff167fceb8c44a0f72f69d728e3d477abbc59a147b458d087e59144c8511977838745434604051610a909190610f35565b60405180910390a260045460055410610b12576002600860026101000a81548160ff02191690836003811115610ac957610ac8610fe2565b5b02179055503373ffffffffffffffffffffffffffffffffffffffff167f927542d877f6ef1fb1779cb252a65aaa543f48e6d9abc25433c57e19ceccf61d60405160405180910390a25b565b600860009054906101000a900460ff1681565b600860019054906101000a900460ff1681565b60065481565b600060045460055410610b565760009050610b69565b600554600454610b669190611654565b90505b90565b600160009054906101000a900473ffffffffffffffffffffffffffffffffffffffff1681565b60045481565b60006003811115610bac57610bab610fe2565b5b600860029054906101000a900460ff166003811115610bce57610bcd610fe2565b5b14610c0e576040517f08c379a0000000000000000000000000000000000000000000000000000000008152600401610c05906116d4565b60405180910390fd5b600860009054906101000a900460ff1615610c5e576040517f08c379a0000000000000000000000000000000000000000000000000000000008152600401610c5590611740565b60405180910390fd5b60008054906101000a900473ffffffffffffffffffffffffffffffffffffffff1673ffffffffffffffffffffffffffffffffffffffff163373ffffffffffffffffffffffffffffffffffffffff1603610cec576040517f08c379a0000000000000000000000000000000000000000000000000000000008152600401610ce3906117d2565b60405180910390fd5b33600160006101000a81548173ffffffffffffffffffffffffffffffffffffffff021916908373ffffffffffffffffffffffffffffffffffffffff1602179055506001600860006101000a81548160ff0219169083151502179055506001600860026101000a81548160ff02191690836003811115610d6e57610d6d610fe2565b5b02179055506000600160009054906101000a900473ffffffffffffffffffffffffffffffffffffffff1673ffffffffffffffffffffffffffffffffffffffff16600254604051610dbd9061148f565b60006040518083038185875af1925050503d8060008114610dfa576040519150601f19603f3d011682016040523d82523d6000602084013e610dff565b606091505b5050905080610e43576040517f08c379a0000000000000000000000000000000000000000000000000000000008152600401610e3a9061183e565b60405180910390fd5b600160009054906101000a900473ffffffffffffffffffffffffffffffffffffffff1673ffffffffffffffffffffffffffffffffffffffff167fe872a2331076ebe8a5388ddf58d8c4373e90b920d48f5ac737a0c936da620bd860405160405180910390a250565b60025481565b60008054906101000a900473ffffffffffffffffffffffffffffffffffffffff1681565b600860029054906101000a900460ff1681565b60006006544210610efc5760009050610f0d565b42600654610f0a9190611654565b90505b90565b60055481565b60035481565b6000819050919050565b610f2f81610f1c565b82525050565b6000602082019050610f4a6000830184610f26565b92915050565b60008115159050919050565b610f6581610f50565b82525050565b6000602082019050610f806000830184610f5c565b92915050565b600073ffffffffffffffffffffffffffffffffffffffff82169050919050565b6000610fb182610f86565b9050919050565b610fc181610fa6565b82525050565b6000602082019050610fdc6000830184610fb8565b92915050565b7f4e487b7100000000000000000000000000000000000000000000000000000000600052602160045260246000fd5b6004811061102257611021610fe2565b5b50565b600081905061103382611011565b919050565b600061104382611025565b9050919050565b61105381611038565b82525050565b600060208201905061106e600083018461104a565b92915050565b600082825260208201905092915050565b7f4e6f206572657320656c207072657374616d6973746100000000000000000000600082015250565b60006110bb601683611074565b91506110c682611085565b602082019050919050565b600060208201905081810360008301526110ea816110ae565b9050919050565b7f456c207072657374616d6f206465626520657374617220656e2065737461646f60008201527f2054616b656e0000000000000000000000000000000000000000000000000000602082015250565b600061114d602683611074565b9150611158826110f1565b604082019050919050565b6000602082019050818103600083015261117c81611140565b9050919050565b7f41756e206e6f206861206c6c656761646f206c6120666563686120646520766560008201527f6e63696d69656e746f0000000000000000000000000000000000000000000000602082015250565b60006111df602983611074565b91506111ea82611183565b604082019050919050565b6000602082019050818103600083015261120e816111d2565b9050919050565b7f4c612070656e616c697a6163696f6e207961206675652061706c696361646100600082015250565b600061124b601f83611074565b915061125682611215565b602082019050919050565b6000602082019050818103600083015261127a8161123e565b9050919050565b7f4e487b7100000000000000000000000000000000000000000000000000000000600052601160045260246000fd5b60006112bb82610f1c565b91506112c683610f1c565b92508282026112d481610f1c565b915082820484148315176112eb576112ea611281565b5b5092915050565b7f4e487b7100000000000000000000000000000000000000000000000000000000600052601260045260246000fd5b600061132c82610f1c565b915061133783610f1c565b925082611347576113466112f2565b5b828204905092915050565b600061135d82610f1c565b915061136883610f1c565b92508282019050808211156113805761137f611281565b5b92915050565b7f4e6f20707565646573207265746972617220656e20657374652065737461646f600082015250565b60006113bc602083611074565b91506113c782611386565b602082019050919050565b600060208201905081810360008301526113eb816113af565b9050919050565b7f4e61646120706172612072657469726172000000000000000000000000000000600082015250565b6000611428601183611074565b9150611433826113f2565b602082019050919050565b600060208201905081810360008301526114578161141b565b9050919050565b600081905092915050565b50565b600061147960008361145e565b915061148482611469565b600082019050919050565b600061149a8261146c565b9150819050919050565b7f46616c6c6f20656c2072657469726f0000000000000000000000000000000000600082015250565b60006114da600f83611074565b91506114e5826114a4565b602082019050919050565b60006020820190508181036000830152611509816114cd565b9050919050565b7f4e6f206572657320656c20707265737461746172696f00000000000000000000600082015250565b6000611546601683611074565b915061155182611510565b602082019050919050565b6000602082019050818103600083015261157581611539565b9050919050565b7f456c206d6f6e746f206465626520736572206d61796f72206120300000000000600082015250565b60006115b2601b83611074565b91506115bd8261157c565b602082019050919050565b600060208201905081810360008301526115e1816115a5565b9050919050565b7f4e6f207075656465732070616761722061686f72610000000000000000000000600082015250565b600061161e601583611074565b9150611629826115e8565b602082019050919050565b6000602082019050818103600083015261164d81611611565b9050919050565b600061165f82610f1c565b915061166a83610f1c565b925082820390508181111561168257611681611281565b5b92915050565b7f456c207072657374616d6f206e6f206573746120646973706f6e69626c650000600082015250565b60006116be601e83611074565b91506116c982611688565b602082019050919050565b600060208201905081810360008301526116ed816116b1565b9050919050565b7f456c207072657374616d6f2079612066756520746f6d61646f00000000000000600082015250565b600061172a601983611074565b9150611735826116f4565b602082019050919050565b600060208201905081810360008301526117598161171d565b9050919050565b7f456c207072657374616d69737461206e6f20707565646520746f6d617220656c60008201527f207072657374616d6f0000000000000000000000000000000000000000000000602082015250565b60006117bc602983611074565b91506117c782611760565b604082019050919050565b600060208201905081810360008301526117eb816117af565b9050919050565b7f5472616e73666572656e6369612066616c6c6964610000000000000000000000600082015250565b6000611828601583611074565b9150611833826117f2565b602082019050919050565b600060208201905081810360008301526118578161181b565b905091905056fea26469706673582212207c2559cf8b47dc9235cc83a72313e04393ee53a14d29bc669fb7120e01c875d664736f6c63430008180033",
  "linkReferences": {},
  "deployedLinkReferences": {}
}